{
	"data": {
		"bytecode": {
			"linkReferences": {},
			"object": "608060405234801561001057600080fd5b5060bb8061001f6000396000f3fe608060405260043610601c5760003560e01c806372cbc6c2146021575b600080fd5b60276029565b005b7319c128c3ca3e853f3a093d946ba1c9de4ac7b04f73ffffffffffffffffffffffffffffffffffffffff166108fc349081150290604051600060405180830381858888f193505050501580156082573d6000803e3d6000fd5b5056fea26469706673582212205aa0621283f637f30b172d8ba9c07f41059f3a11eefa254e8551d1ed48f2397864736f6c63430008060033",
			"opcodes": "PUSH1 0x80 PUSH1 0x40 MSTORE CALLVALUE DUP1 ISZERO PUSH2 0x10 JUMPI PUSH1 0x0 DUP1 REVERT JUMPDEST POP PUSH1 0xBB DUP1 PUSH2 0x1F PUSH1 0x0 CODECOPY PUSH1 0x0 RETURN INVALID PUSH1 0x80 PUSH1 0x40 MSTORE PUSH1 0x4 CALLDATASIZE LT PUSH1 0x1C JUMPI PUSH1 0x0 CALLDATALOAD PUSH1 0xE0 SHR DUP1 PUSH4 0x72CBC6C2 EQ PUSH1 0x21 JUMPI JUMPDEST PUSH1 0x0 DUP1 REVERT JUMPDEST PUSH1 0x27 PUSH1 0x29 JUMP JUMPDEST STOP JUMPDEST PUSH20 0x19C128C3CA3E853F3A093D946BA1C9DE4AC7B04F PUSH20 0xFFFFFFFFFFFFFFFFFFFFFFFFFFFFFFFFFFFFFFFF AND PUSH2 0x8FC CALLVALUE SWAP1 DUP2 ISZERO MUL SWAP1 PUSH1 0x40 MLOAD PUSH1 0x0 PUSH1 0x40 MLOAD DUP1 DUP4 SUB DUP2 DUP6 DUP9 DUP9 CALL SWAP4 POP POP POP POP ISZERO DUP1 ISZERO PUSH1 0x82 JUMPI RETURNDATASIZE PUSH1 0x0 DUP1 RETURNDATACOPY RETURNDATASIZE PUSH1 0x0 REVERT JUMPDEST POP JUMP INVALID LOG2 PUSH5 0x6970667358 0x22 SLT KECCAK256 GAS LOG0 PUSH3 0x1283F6 CALLDATACOPY RETURN SIGNEXTEND OR 0x2D DUP12 0xA9 0xC0 PUSH32 0x41059F3A11EEFA254E8551D1ED48F2397864736F6C6343000806003300000000 "
		},
		"gasEstimates": {
			"creation": {
				"codeDepositCost": "37400",
				"executionCost": "87",
				"totalCost": "37487"
			},
			"external": {
				"MoveETH()": "infinite"
			}
		},
		"methodIdentifiers": {
			"MoveETH()": "72cbc6c2"
		}
	},
	"abi": [
		{
			"inputs": [],
			"name": "MoveETH",
			"outputs": [],
			"stateMutability": "payable",
			"type": "function"
		}
	]
}